:040000005DEF08F0B8
:08000800046ED8CF05F0E0CF33
:1000100006F00001E9CF0CF0EACF07F0E1CF08F0DD
:10002000E2CF09F0D9CF0AF0DACF0BF0F3CF12F01C
:10003000F4CF13F0FACF14F0F5CF15F0F6CF16F099
:10004000F7CF17F000C00EF001C00FF002C010F0A3
:1000500003C011F09DA030EF00F09EB05DEF00F006
:100060009DAA36EF00F09EBAA3EF03F00EC000F099
:100070000FC001F010C002F011C003F00CC0E9FF86
:1000800007C0EAFF078E08C0E1FF09C0E2FF0AC00F
:10009000D9FF0BC0DAFF12C0F3FF13C0F4FF14C086
:1000A000FAFF15C0F5FF16C0F6FF17C0F7FF0450A2
:1000B00006C0E0FF05C0D8FF1000FC0ECF6E170E83
:1000C000CE6E1C50010A05E0030A1CE0010A33E071
:1000D0004AD0E60E936E1A9481B41A84E60E936E9B
:1000E0001A9A81B21A8AE60E936E1B9081BA1B800F
:1000F000E60E936E8A90936E8A86936E8A88020EBD
:100100001C6E31D0E60E936E1A9081B41A80E60E02
:10011000936E1A9681B21A86E60E936E1A9C81BA75
:100120001A8CE60E936E8A80936E8A96936E8A88F6
:10013000030E1C6E18D0E60E936E1A9281B41A82CA
:10014000E60E936E1A9881B21A88E60E936E1A9E86
:1001500081BA1A8EE60E936E8A80936E8A86936EAB
:100160008A98010E1C6E82A41AD0FF0E2626D8A0F3
:100170002726D8A02826D8A02926265210E12752C3
:100180000EE128520CE129520AE1F00E946E8B9494
:10019000296A040E286E930E276EE00E266E9E903E
:1001A00036EF00F00900F5520DE0F6CFD3F0F7CFAF
:1001B000D4F0F5509EA8FED7AD6ED3C0F6FFD4C0E4
:1001C000F7FFF0D71200AA0EF66E070EF76EEADF01
:1001D0000D0E9EA8FED7AD6E0A0E9EA8FED7AD6E80
:1001E000020EF66E080EF76EDDDF0D0E9EA8FED72E
:1001F000AD6E0A0E9EA8FED7AD6E0E0EF66E080E00
:10020000F76ED0DF0D0E9EA8FED7AD6E0A0E9EA82B
:10021000FED7AD6E4C0EF66E080EF76EC3DF0D0EF8
:100220009EA8FED7AD6E0A0E9EA8FED7AD6E660ED6
:10023000F66E080EF76EB6DF0D0E9EA8FED7AD6EF9
:100240000A0E9EA8FED7AD6E720EF66E080EF76E01
:10025000A9DF0D0E9EA8FED7AD6E0A0E9EA8FED792
:10026000AD6ECA0EF66E080EF76E9CDF0D0E9EA8E0
:10027000FED7AD6E0A0E9EA8FED7AD6EE80EF66EE6
:10028000080EF76E8FDF0D0E9EA8FED7AD6E0A0E1C
:100290009EA8FED7AD6E260EF66E090EF76E82DFB3
:1002A0000D0E9EA8FED7AD6E0A0E9EA8FED7AD6EAF
:1002B000660EF66E090EF76E75DF0D0E9EA8FED760
:1002C000AD6E0A0E9EA8FED7AD6E8A0EF66E090EB2
:1002D000F76E68DF0D0E9EA8FED7AD6E0A0E9EA8C3
:1002E000FED7AD6E1200D4C003F0D3C0E9FFD4C076
:1002F000EAFFEF5237E0D4C0D8F0D3C0D7F0D6C071
:10030000DAF0D5C0D9F0DAC003F0D9C0E9FFDAC01D
:10031000EAFFEF5216E0D7C0E9FFD8C0EAFFEFCFFF
:10032000DBF0DAC003F0D9C0E9FFDAC0EAFFEF5032
:10033000DB5D07E1D72BD8B4D82BD92BD8B4DA2B77
:10034000E2D7DAC003F0D9C0E9FF03C0EAFFEF52F9
:1003500005E1D3C001F0D4C002F007D0D32BD8B44C
:10036000D42BC1D7000E016E026E80EF03F033C0B4
:10037000EAFF32C0E9FFF1C0EFFFE92AD8B4EA2A68
:10038000EF6A322AD8B4332A12000900F6CFECF013
:10039000F7CFEDF0F5CFF1F0EADFECC0F6FFEDC0FE
:1003A000F7FFEB2FF2D71200F251016AF15D03E281
:1003B000F1C000F00CD0006A080EF36FF137003680
:1003C000F251005CD8B0006E0136F32FF7D712005F
:1003D000200EECA9300EED6FEBC000F0EBAF08D0B3
:1003E000001E002A00C0EBF02D0EED6FEC8FEC81AB
:1003F0000150EBC0F1F0640EF26FD6DF00C0EBF0FD
:10040000300E0124EE6FEBC0F1F00A0EF26FCCDF7C
:10041000300E0024F06F300E0124EF6FEDC000F0BD
:10042000300EEE5D04E0EC83ECBFEC8512D0EDC045
:10043000EEF0200EED6F300EEF5D04E0EC81ECBFCE
:10044000EC8307D0D8A4EC8104E1EEC0EFF0200EDD
:10045000EE6FECB505D0ECB306D0ECB107D009D007
:10046000EDC0F1F084DFEEC0F1F081DFEFC0F1F01C
:100470007EDFF0C0F1F07BDF1200EF5210E0EACF38
:10048000ECF0E9CFEBF0EF509EA8FED7AD6EECC0DC
:10049000EAFFEBC0E9FFE92AD8B4EA2AEED7120056
:1004A000D66BD551010A11E0030A13E0010A15E0E9
:1004B000070A17E0010A19E0030A1BE0010A1DE020
:1004C0000F0A1FE0010A21E024D0D66B84B0D62B9E
:1004D00021D0D66B80BAD62B1DD0D66B80B8D62B48
:1004E00019D0D66B80B6D62B15D0D66B80B4D62B50
:1004F00011D0D66B80B2D62B0DD0D66B80B0D62B58
:1005000009D0D66B84B2D62B05D0D66B84B4D62B4B
:1005100001D03BD0D65317E0336AD70E326E800E2F
:10052000F66E070EF76E050EEB6F2FDFD5C0EBF002
:10053000180EEC6F4DDF870EF66E070EF76E0C0E81
:10054000EB6F23DF16D0336AD70E326E940EF66E41
:10055000070EF76E050EEB6F18DFD5C0EBF0180E27
:10056000EC6F36DF9B0EF66E070EF76E0D0EEB6F1F
:100570000CDFEA6AD70EE96E80DF0D0E9EA8FED76B
:10058000AD6E0A0E9EA8FED7AD6E1200D36BD3518E
:10059000080807E3010ED325D46FD56F81DFD32B75
:1005A000F6D789EF03F0530ECD6F540ECE6F410E88
:1005B000CF6F540ED06F450ED16FD26B1D505208C5
:1005C000D8A492D01E504C08D8A48DD01F505908E2
:1005D000D8A489D021504F08D8A482D0300E205CF6
:1005E000CC6FF00E946E8B84010ECC5DF70FD8B0FB
:1005F00077D0090F8DEF03F022504E0803E1E80E8B
:10060000966E8D802250460803E1E80E966E8D901E
:1006100067D022504E0803E1000E926E898A225064
:10062000460803E1000E926E899A5AD022504E0875
:1006300003E1000E926E89882250460803E1000E05
:10064000926E89984DD022504E0803E1000E926EB2
:1006500089862250460803E1000E926E899640D0AA
:1006600022504E0803E1000E926E89842250460803
:1006700003E1000E926E899433D022504E0803E1BC
:10068000000E926E89822250460803E1000E926E9F
:10069000899226D022504E0803E1000E926E898086
:1006A0002250460803E1000E926E899019D0225024
:1006B0004E0803E1E80E966E8D822250460803E153
:1006C000E80E966E8D920CD022504E0803E1E80E93
:1006D000966E8D842250460803E1E80E966E8D9446
:1006E000CCC001F018D015D01D50480802E16BDDD8
:1006F00010D0D46B1D0ED36FD66BCD0ED56FF3D546
:1007000002C0D4F001C0D3F0D35302E1D45301E0CE
:100710003DD7000E016EB0EF03F0E824F76AF7361C
:10072000350FF66E070EF7220A00F550FA6E080034
:10073000F550F96EF80512062C06460660067A0694
:100740009406AE06C8069EAAFED7AECFCBF0CB511C
:10075000240802E1246A11D0CB51260804E123D7F2
:1007600001C025F00AD0036A24501D0FE96E000E67
:100770000320EA6ECBC0EFFF242A9E9A36EF00F0EA
:1007800052454C41592564205357495443484544E8
:10079000204F4E0052454C4159256420535749542F
:1007A00043484544204F464600003D3D3D3D3D3DCC
:1007B0003D3D3D3D3D3D3D3D3D3D3D3D3D3D3D3D69
:1007C0003D3D3D3D3D3D3D3D3D3D3D3D3D3D3D3D59
:1007D0003D3D3D3D3D3D3D3D3D3D3D3D3D3D3D3D49
:1007E0003D3D3D3D3D3D3D3D3D3D3D3D3D3D3D3D39
:1007F0003D3D3D3D3D3D3D3D3D3D3D3D3D3D3D3D29
:100800000000456C656B746F7228432900005072BC
:100810006F6A656374204E616D653A2039204368C4
:10082000616E6E656C2052656C617920436F6E74E9
:10083000726F6C20426F6172642077697468205017
:100840004320496E746572666163650050726F6A19
:10085000656374204E756D6265723A2031333035B0
:1008600034392D31000056657273696F6E20312E58
:1008700031003D3D3D3D3D3D3D3D3D3D3D3D3D3DF1
:100880003D3D3D3D3D3D3D3D3D3D3D3D3D3D3D3D98
:100890003D3D3D3D3D3D3D3D3D3D3D3D3D3D3D3D88
:1008A0003D3D3D3D3D3D3D3D3D3D3D3D3D3D3D3D78
:1008B0003D3D3D3D3D3D3D3D3D3D3D3D3D3D3D3D68
:1008C0003D3D3D3D3D3D3D3D0000494E535452555B
:1008D0004354494F4E5320464F5220504320434FDC
:1008E0004D4D414E44533A0024524C59234F4E260D
:1008F000203A205455524E20412052454C41592017
:100900004F4E20285245504C414345202320425908
:100910002052454C4159204E554D424552203120E0
:10092000544F2039290024524C59234F4646263A29
:10093000205455524E20412052454C4159204F469B
:100940004620285245504C414345202320425920FF
:1009500052454C4159204E554D424552203120546C
:100960004F20392900002448262020202020203A2A
:100970002053484F57205448452048454C5020505C
:1009800041474520414741494E0024535441544575
:100990002620203A205052494E54205448452043A6
:1009A000555252454E5420535441544553204F46BE
:1009B000205448452052454C41595300EA6AAD0E37
:1009C000E96EEF500EE0050E016E006A002EFED7B4
:1009D000012EFBD72E0E006E002EFED700D0EF2E7C
:1009E000F2D71200B0C0B1F0100EB117B15100082B
:1009F00004E2F00E946E8B8203D0F00E946E8B9214
:100A0000B0C0B1F0200EB117B151000804E2F00EF1
:100A1000946E8B8003D0F00E946E8B90B0C0B1F0CA
:100A2000400EB117B151000804E2000E926E898C9D
:100A300003D0000E926E899CB0C0B1F0800EB11749
:100A4000B151000804E2000E926E898E03D0000EB0
:100A5000926E899E1200F90E956E8C92F00E946E35
:100A60008B96850E006E002EFED7F00E946E8B8650
:100A7000850E006E002EFED7F00E946E8B96850EBE
:100A8000006E002EFED71200B0C0B1F0010EB117FB
:100A9000B151000804E2F00E946E8B8203D0F00E88
:100AA000946E8B92B0C0B1F0020EB117B151000834
:100AB00004E2F00E946E8B8003D0F00E946E8B9057
:100AC000B0C0B1F0040EB117B151000804E2000E3D
:100AD000926E898C03D0000E926E899CB0C0B1F0EA
:100AE000080EB117B151000804E2000E926E898E13
:100AF00003D0000E926E899E1200AEC0B0F072DF7D
:100B0000AADFAEC0B0F0C0DFA6DF1200200EB06FCB
:100B100069DFA1DF960EAD6F51DF200EB06F62DF8F
:100B20009ADF960EAD6F4ADF200EB06F5BDF93DF6A
:100B3000960EAD6F43DF280EAE6FDFDF640EAD6F34
:100B40003DDF0C0EAE6FD9DF640EAD6F37DF060EE2
:100B5000AE6FD3DF640EAD6F31DF010EAE6FCDDF50
:100B6000640EAD6F2BDF1AEF09F0F90E956E8C82D3
:100B7000F00E946E8B96850E006E002EFED7F00E52
:100B8000946E8B86850E006E002EFED7F00E946E4E
:100B90008B96850E006E002EFED71200AFC0B0F00F
:100BA00021DFE3DFAFC0B0F06FDFDFDF1200AD6B3E
:100BB000800EAE6FA2DF140EAC6FAC530DE0036A73
:100BC000AD51580FE96E000E0320EA6EEFCFAFF083
:100BD000E5DFAD2BAC07F1D7C00EAE6F8EDFAD6B8E
:100BE000140EAC6FAC530DE0036AAD516D0FE96E9E
:100BF000000E0320EA6EEFCFAFF0D0DFAD2BAC07D5
:100C0000F1D7940EAE6F79DFAD6B140EAC6FAC53B1
:100C10000DE0036AAD51820FE96E000E0320EA6E0B
:100C2000EFCFAFF0BBDFAD2BAC07F1D7D40EAE6F7B
:100C300064DFAD6B140EAC6FAC530DE0036AAD51C5
:100C4000970FE96E000E0320EA6EEFCFAFF0A6DF3C
:100C5000AD2BAC07F1D71EEF09F0AD6B800EAE6F78
:100C60004CDF140EAC6FAC5306E0200EAF6F96DF76
:100C7000AD2BAC07F8D76EEF06F0AD6BC00EAE6FC4
:100C80003CDF140EAC6FAC5306E0200EAF6F86DF76
:100C9000AD2BAC07F8D76FEF06F0AD6B940EAE6FCF
:100CA0002CDF140EAC6FAC5306E0200EAF6F76DF76
:100CB000AD2BAC07F8D770EF06F0AD6BD40EAE6F6E
:100CC0001CDF140EAC6FAC5306E0200EAF6F66DF76
:100CD000AD2BAC07F8D771EF06F0BFD7CED7DDD775
:100CE000ECD72FEF09F0AD6B800EAE6F06DF130E61
:100CF000AC6FAC530DE0036AAD51340FE96E000EDA
:100D00000320EA6EEFCFAFF049DFAD2BAC07F1D790
:100D100030EF09F0AD6B940EAE6FEFDE0F0EAC6FDF
:100D2000AC530DE0036AAD51480FE96E000E03208D
:100D3000EA6EEFCFAFF032DFAD2BAC07F1D731EF7A
:100D400009F0C00EAE6FD9DE4F0EAF6F27DF84A063
:100D500007D04E0EAF6F22DF200EAF6F1FDF06D021
:100D6000460EAF6F1BDF460EAF6F18DFC40EAE6FBF
:100D7000C4DE4F0EAF6F12DF80AA07D04E0EAF6FEA
:100D80000DDF200EAF6F0ADF06D0460EAF6F06DF15
:100D9000460EAF6F03DFC80EAE6FAFDE4F0EAF6F04
:100DA000FDDE80A807D04E0EAF6FF8DE200EAF6FCD
:100DB000F5DE06D0460EAF6FF1DE460EAF6FEEDE0B
:100DC000CC0EAE6F9ADE4F0EAF6FE8DE80A607D076
:100DD0004E0EAF6FE3DE200EAF6FE0DE06D0460EA4
:100DE000AF6FDCDE460EAF6FD9DED00EAE6F85DEA4
:100DF0004F0EAF6FD3DE80A407D04E0EAF6FCEDEA6
:100E0000200EAF6FCBDE06D0460EAF6FC7DE460EAC
:100E1000AF6FC4DED40EAE6F70DE4F0EAF6FBEDEAE
:100E200080A207D04E0EAF6FB9DE200EAF6FB6DED8
:100E300006D0460EAF6FB2DE460EAF6FAFDED80EF5
:100E4000AE6F5BDE4F0EAF6FA9DE80A007D04E0EF7
:100E5000AF6FA4DE200EAF6FA1DE06D0460EAF6FDF
:100E60009DDE460EAF6F9ADEDC0EAE6F46DE4F0E95
:100E7000AF6F94DE84A207D04E0EAF6F8FDE200ED0
:100E8000AF6F8CDE06D0460EAF6F88DE460EAF6FBA
:100E900085DEE00EAE6F31DE4F0EAF6F7FDE84A4D5
:100EA00007D04E0EAF6F7ADE200EAF6F77DE06D022
:100EB000460EAF6F73DE460EAF6F70DE12001AB0D3
:100EC0001AD0E80E966E8D70F00E946E8B8439DF1A
:100ED000196AF2BE198EF29E010ED56F50EC02F027
:100EE00019BEF28E1E0EAD6F69DD1AB001D0FDD7AE
:100EF0001E0EAD6F63DD1AB21AD0000E926E897AA3
:100F0000F00E946E8B841DDF196AF2BE198EF29E6C
:100F1000020ED56F50EC02F019BEF28E1E0EAD6FB0
:100F20004DDD1AB201D0FDD71E0EAD6F47DD1AB4EC
:100F30001AD0000E926E8978F00E946E8B8401DFC9
:100F4000196AF2BE198EF29E030ED56F50EC02F0B4
:100F500019BEF28E1E0EAD6F31DD1AB401D0FDD771
:100F60001E0EAD6F2BDD1AB61AD0000E926E89766A
:100F7000F00E946E8B84E5DE196AF2BE198EF29E35
:100F8000040ED56F50EC02F019BEF28E1E0EAD6F3E
:100F900015DD1AB601D0FDD71E0EAD6F0FDD1AB8E4
:100FA0001AD0000E926E8974F00E946E8B84C9DE96
:100FB000196AF2BE198EF29E050ED56F50EC02F042
:100FC00019BEF28E1E0EAD6FF9DC1AB801D0FDD736
:100FD0001E0EAD6FF3DC1ABA1AD0000E926E897233
:100FE000F00E946E8B84ADDE196AF2BE198EF29EFD
:100FF000060ED56F50EC02F019BEF28E1E0EAD6FCC
:10100000DDDC1ABA01D0FDD71E0EAD6FD7DC1ABCDD
:101010001AD0000E926E8970F00E946E8B8491DE61
:10102000196AF2BE198EF29E070ED56F50EC02F0CF
:1010300019BEF28E1E0EAD6FC1DC1ABC01D0FDD7F9
:101040001E0EAD6FBBDC1ABE1AD0E80E966E8D7206
:10105000F00E946E8B8475DE196AF2BE198EF29EC4
:10106000080ED56F50EC02F019BEF28E1E0EAD6F59
:10107000A5DC1ABE01D0FDD71E0EAD6F9FDC1BB0E4
:101080001AD0E80E966E8D74F00E946E8B8459DE35
:10109000196AF2BE198EF29E090ED56F50EC02F05D
:1010A00019BEF28E1E0EAD6F89DC1BB001D0FDD7CC
:1010B0001E0EAD6F83DC41EF09F0F86AD09E078EFB
:1010C000700ED36E9B9C9B9EB886A00EAF6E010ED9
:1010D000B06EA60EAC6E900EAB6E1A801A821A8499
:1010E0001A861A881A8A1A8C1A8E1B80010E1C6E98
:1010F000256A296A040E286E930E276EE00E266E6E
:10110000336A326A0F01386B396B3A6B3B6B3C6B5D
:10111000776A786A796A316AF40E306E050E0001DA
:10112000F56F080EF46FF76BF66B40D002002A00E3
:10113000002400345245312052453220524533209C
:10114000524534205245350052453620524537200D
:10115000524538205245390005C0200A80456C654B
:101160006B746F7228432905C02016800020203937
:101170002043682052656C617920426F617264205F
:10118000200006C02008803133303534392D310637
:10119000C02001800004C0200B8056657273696F07
:1011A0006E20312E3005C02001800000000EF86E48
:1011B000110EF76E2C0EF66E0900F550006E000A47
:1011C00013E00900F550016EE8BE05D00F0BEA6E82
:1011D0000900F5CFE9FF01BC090001AC0900F5CF1A
:1011E000EEFF004EE9D7F9D7F86A6168F19EE80E84
:1011F000966E270ECD6ECC6AE80E966E8D90000E20
:10120000926E899A926E8998926E8996926E89945E
:10121000926E8992926E8990E80E966E8D92966E7D
:101220008D949D809D8AC00EF212C80EAD6FDEECCB
:1012300004F06CD4F00E946E8B84B9D4196AF2BEAB
:10124000198EF29EE3EC00F019BEF28E0C0EAC6F1C
:10125000FA0EAD6FDEEC04F0AC2FFAD73ED543D5D5
:1012600059D56FDD25520CE06CDD196AF2BE198E7E
:10127000F29E25C0D5F050EC02F019BEF28E256A20
:061280001ED6F0D70300AA
:020000040030CA
:0E00000000E8183C003F81000FC00FE00F40E9
:00000001FF
;PIC18F45K22
;CRC=212B  CREATED="05-jul-18 09:25"
